:100000000A128A1103280030A0000030A10000303D
:10001000A4000030A5000030A2000030A300831629
:100020000313FF30850003100030031801308700F0
:1000300003108312031300300318013087000310EC
:100040008316031300300318013088000310831255
:1000500003130030031801308800C5309F00803042
:10006000831603139F0038300A128A11A6260A123B
:100070008A110C300A128A11A6260A128A118030BF
:100080000A128A11A6260A128A114628831203131D
:100090000C1F4B284C2846280C131F1583160313DE
:1000A0001E0883120313A600A7012608A000270834
:1000B000A1001E08A600A7012608A4002708A50085
:1000C0002508A7002408A600083084000310A60D08
:1000D000A70D840B66282608A4002708A500200881
:1000E0002407A20021080318210A2507A3002208DB
:1000F000A801A8072308A901A9070A128A118B27BA
:100100000A128A11883083120313C1001330C2000F
:100110000A128A1194260A128A113F280A128A1199
:020120000028B5
:100D2800952E0130C1020030031CC203C202FF30FD
:100D38004206031DA12EFF304106031DA42EA52E39
:100D4800952E080083120313A800071087100715B3
:100D5800280883138800E830C100FD30C2000A1259
:100D68008A1194260A128A118312031307110800A4
:100D78000310003003180130C500C21FC42EC52E51
:100D8800CD2EC109C209C10A0319C20AC50103143B
:100D9800C50DC41FD02ED12ED62EC309C409C30A2F
:100DA8000319C40A440843040319DB2EDC2E0C2F54
:100DB800C6010314C60DEB2E01300310C30DC40D7C
:100DC800FF3E031DE12E0130C7004708C607C41FB8
:100DD800EE2EEF2EE02E44084202031DF52E4308A6
:100DE8004102031CF82EF92EFF2E4308C1024408C5
:100DF800031CC203C20201300310C40CC30CFF3E23
:100E0800031D002F0130C602031D0B2F0C2FEF2EE0
:100E1800C508031D102F152FC109C209C10A0319DE
:100E2800C20A162F08000310003003180130C6004C
:100E3800C41F1F2F202F282FC309C409C30A031951
:100E4800C40AC6010314C60DC21F2B2F2C2F352F21
:100E5800C109C209C10A0319C20A0130C9004908F7
:100E6800C6060030C7000030C80044084304031910
:100E78003E2F3F2F7A2FC5010314C50D4E2F013089
:100E88000310C30DC40DFF3E031D442F0130C900DC
:100E98004908C507C41F512F522F432F0130031093
:100EA800C70DC80DFF3E031D532F44084202031D02
:100EB8005F2F43084102031C622F632F6D2F4308E5
:100EC800C1024408031CC203C2020130C704003037
:100ED800C80401300310C40CC30CFF3E031D6E2F61
:100EE8000130C502031D792F7A2F522FC608031D22
:100EF8007E2F832FC709C809C70A0319C80A4708DC
:100F0800C101C1074808C201C2078A2F0800003082
:100F1800AA000030AB00C92F0A30C3000030C4005B
:100F28002808C101C1072908C201C2070A128A118B
:100F3800BC260A128A11831203132A088313C000DD
:100F480040072C3E840041088000840A4208800043
:100F58000A30C3000030C4002808C101C1072908AD
:100F6800C201C2070A128A1117270A128A118312AC
:100F780003134108A801A8074208A901A9070130DD
:100F8800AA070318AB0A0030AB072908803AC0004B
:100F980080304002031DD22F013028020318D52FBC
:100FA800D62F902FFF30AA070318AB0AFF30AB07E4
:100FB800FB2F0714871007152A088313C000400762
:100FC8002C3E84000008303E8800E830C100FD3027
:100FD800C2000A128A1194260A128A118312031374
:100FE8000711FF30AA070318AB0AFF30AB07AB1F86
:080FF800FE2FFF2FDD2F080082
:00000001FF
