:100000000A128A1103280310831603130030031801
:100010000130860003100030031801308700F030F3
:100020008800031083120313003003180130860088
:10003000031000300318013087000310003003184C
:100040000130880038300A128A11EB270A128A110F
:100050000C300A128A11EB270A128A1101300A1297
:100060008A11EB270A128A11F130831203138800D8
:10007000081E3B283C28492831300A128A11D8270B
:100080000A128A11432883120313081A48284928A0
:100090004328881E4C284D285A2834300A128A11C9
:1000A000D8270A128A11542883120313881A592850
:1000B0005A285428081F5D285E286B2837300A12FA
:1000C0008A11D8270A128A11652883120313081B84
:1000D0006A286B286528881F6E286F287C282A309C
:1000E0000A128A11D8270A128A117628831203135A
:1000F000881B7B287C287628F2308800081E8128FF
:1001000082288F2832300A128A11D8270A128A11BF
:10011000892883120313081A8E288F288928881E9D
:1001200092289328A02835300A128A11D8270A125B
:100130008A119A2883120313881A9F28A0289A28C4
:10014000081FA328A428B12838300A128A11D827FA
:100150000A128A11AB2883120313081BB028B12896
:10016000AB28881FB428B528C22830300A128A115B
:10017000D8270A128A11BC2883120313881BC128AE
:10018000C228BC28F4308800081EC728C828D528F3
:1001900033300A128A11D8270A128A11CF28831203
:1001A0000313081AD428D528CF28881ED828D92880
:1001B000E62836300A128A11D8270A128A11E02856
:1001C00083120313881AE528E628E028081FE92887
:1001D000EA28F72839300A128A11D8270A128A1118
:1001E000F12883120313081BF628F728F128881F2B
:1001F000FA28FB28082923300A128A11D8270A1264
:100200008A11022983120313881B0729082902294E
:0802100034280A128A110028AB
:100F8C00C72F0130F1020030031CF203F202FF30D4
:100F9C007206031DD32FFF307106031DD62FD72FDA
:100FAC00C72F0800F000071487107008860007157B
:100FBC00E830F100FD30F2000A128A11C6270A123D
:100FCC008A118312031307110800F0008312031314
:100FDC0007108710700886000715E830F100FD3007
:100FEC00F2000A128A11C6270A128A1183120313FD
:040FFC0007110800D1
:00000001FF
