:100000006A3084000730F000FA30F10011208000DF
:10001000840A0408703A03191528F10A0319F00A32
:10002000062870088A00710882000A128A111828AE
:10003000723084006A088000840A6B088000840A99
:100040006C088000840A6D088000840A6E088000B5
:10005000840A6F088000031083160313003003180E
:1000600001308600031000300318013087000310B0
:1000700083120313003003180130860002300A1285
:100080008A1198270A128A1128300A128A11982791
:100090000A128A110C300A128A1198270A128A1140
:1000A00001300A128A1198270A128A1180300A1226
:1000B0008A1198270A128A110030F0000030F100EE
:1000C00061287008723E840000080A128A11C9274C
:1000D0000A128A11E830FB00FD30FC000A128A1176
:1000E00086270A128A110130F0070318F10A00303E
:1000F000F1077108803AF80080307802031D8228E9
:1001000006307002031C85288628612886280A127A
:040110008A11002828
:100F0C00872F0130FB020030031CFC03FC02FF3076
:100F1C007C06031D932FFF307B06031D962F972F06
:100F2C00872F0800F9007908F03983120313860023
:100F3C00071087100715E830FB00FD30FC000A1283
:100F4C008A1186270A128A11831203130711790852
:100F5C00FA0003300310FA0DFF3E031DB02F0310EF
:100F6C007A0DF0398600071087100715E830FB0062
:100F7C00FD30FC000A128A1186270A128A1183128C
:100F8C00031307110800F9007908F03983120313D1
:100F9C008600071487100715E830FB00FD30FC00B5
:100FAC000A128A1186270A128A1183120313071157
:100FBC007908FA0003300310FA0DFF3E031DE12FF0
:100FCC0003107A0DF0398600071487100715E830E6
:100FDC00FB00FD30FC000A128A1186270A128A11C6
:100FEC0083120313071108004B344134563449342F
:040FFC0059344134EF
:00000001FF
