:10000000743084000730F000F630F10011208000D9
:10001000840A04087E3A03191528F10A0319F00A24
:10002000062870088A00710882000A128A111828AE
:100030000130F0000030F10003108316031300308C
:1000400003180130860007150710831203130710E9
:1000500083120313071D2D282E2852287008743E82
:1000600084000008860034280719372838283428E7
:100070000130F0070318F10A0030F1070A3070066A
:100080007104031D4428452849280030F000003041
:10009000F100E830F200FD30F3000A128A11E42783
:0C00A0000A128A1128280A128A1100286E
:100FC800E52FFF30F2070318F30AFF30F307FF306D
:100FD8007306031DF12FFF307206031DF42FF52F42
:100FE800E52F0800C034F934A434B034993492346D
:080FF8008234F8348034903497
:00000001FF
