:10000000663084000730F000F630F10011208000E7
:10001000840A0408703A03191528F10A0319F00A32
:10002000062870088A00710882000A128A111828AE
:1000300003108316031300300318013086000310E9
:100040008312031300300318013086008316031354
:10005000071087100030F0000030F1002F288312C5
:1000600007107008663E8400831300088600E8309D
:10007000F300FD30F4000A128A11E4270A128A11F3
:100080008312031307140230F0070318F10A00303B
:10009000F1077108803AF20080307202031D522885
:1000A0000A307002031C552856282F282A280A12C5
:0400B0008A11002889
:100FC800E52FFF30F3070318F40AFF30F407FF306A
:100FD8007406031DF12FFF307306031DF42FF52F40
:100FE800E52F0800C034F934A434B034993492346D
:080FF8008234F8348034903497
:00000001FF
