:100000000A128A1103280130F0000030F1000310B9
:100010008316031300300318013086000310831287
:10002000031300300318013086000130F000003067
:10003000F1001A287008831203138600E830F400D8
:10004000FD30F5000A128A11EE270A128A11710892
:10005000F3007008F200013084000310F20DF30D7C
:10006000840B2D287208F0007308F1007108803AA3
:10007000F20080307202031D3F2881307002031CA1
:0E008000422843281A2815280A128A1100283F
:100FDC00EF2F0130F4020030031CF503F502FF3053
:100FEC007506031DFB2FFF307406031DFE2FFF2F0C
:040FFC00EF2F0800CB
:00000001FF
