:100000000A128A1103283230831603139200031058
:100010008312031300300318013091008316031379
:1000200007118312031307110F309700FF3092005E
:10003000031000300318013095000030F00000304C
:10004000F100222870088312031395001030F3008A
:100050002730F4000A128A11EE270A128A110130A1
:10006000F0070318F10A0030F1077108803AF20036
:1000700080307202031D3E2832307002031C41287A
:0C008000422822281D280A128A1100289C
:100FDC00EF2F0130F3020030031CF403F402FF3056
:100FEC007406031DFB2FFF307306031DFE2FFF2F0E
:040FFC00EF2F0800CB
:00000001FF
