:10000000663084000730F000F630F10011208000E7
:10001000840A0408703A03191528F10A0319F00A32
:10002000062870088A00710882000A128A111828AE
:1000300003108316031300300318013086000710E5
:100040000130F0000030F10025287008663E840081
:1000500083130008831286000710E830F300FD3098
:10006000F4000A128A11E4270A128A118312031378
:1000700007147008023EF00071080318013E003EAC
:10008000F1007108803AF20080307202031D4A28A4
:100090000A307002031C4D284E28252820280A12F9
:0400A0008A11002899
:100FC800E52FFF30F3070318F40AFF30F407FF306A
:100FD8007406031DF12FFF307306031DF42FF52F40
:100FE800E52F0800C034F934A434B034993492346D
:080FF8008234F8348034903497
:00000001FF
