:10000000743084000730F000F630F10011208000D9
:10001000840A04087E3A03191528F10A0319F00A24
:10002000062870088A00710882000A128A111828AE
:1000300003108316031300300318013086000310E9
:1000400000300318013087000310831203130030BF
:100050000318013086000130A4000030A5003028CC
:100060000A30A9000030AA002408A701A707250824
:10007000A801A8070A128A1182270A128A1183127C
:1000800003132708A201A2072808A301A3070A3027
:10009000A9000030AA002408A701A7072508A80185
:1000A000A8070A128A1127270A128A11831203133A
:1000B0002708A001A0072808A101A107871422088A
:1000C0008313743E840000088600E830A700FD30EA
:1000D000A8000A128A1115270A128A118312031323
:1000E0008710E830A700FD30A8000A128A111527F2
:1000F0000A128A1183120313071520088313743E12
:10010000840000088600E830A700FD30A8000A122D
:100110008A1115270A128A11831203130711E83076
:10012000A700FD30A8000A128A1115270A128A11A9
:10013000831203130130A4070318A50A0030A50792
:100140002508803AA60080302602031DA9286430C5
:100150002402031CAC28AD2830282B280A128A114F
:02016000002875
:100E2A00162F0130A7020030031CA803A802FF30C6
:100E3A002806031D222FFF302706031D252F262FE4
:100E4A00162F08000310003003180130AB00A81F4A
:100E5A002F2F302F382FA709A809A70A0319A80A84
:100E6A00AB010314AB0DAA1F3B2F3C2F412FA9093D
:100E7A00AA09A90A0319AA0A2A0829040319462F42
:100E8A00472F772FAC010314AC0D562F01300310F6
:100E9A00A90DAA0DFF3E031D4C2F0130AD002D08F0
:100EAA00AC07AA1F592F5A2F4B2F2A082802031DB5
:100EBA00602F29082702031C632F642F6A2F290831
:100ECA00A7022A08031CA803A80201300310AA0CCF
:100EDA00A90CFF3E031D6B2F0130AC02031D762FB8
:100EEA00772F5A2FAB08031D7B2F802FA709A8093C
:100EFA00A70A0319A80A812F080003100030031853
:100F0A000130AB00AA1F8A2F8B2F932FA909AA0998
:100F1A00A90A0319AA0AAB010314AB0DA81F962F3D
:100F2A00972FA02FA709A809A70A0319A80A013011
:100F3A00AF002F08AB060030AD000030AE002A0823
:100F4A0029040319A92FAA2FE52FAC010314AC0D0C
:100F5A00B92F01300310A90DAA0DFF3E031DAF2FB3
:100F6A000130AF002F08AC07AA1FBC2FBD2FAE2F30
:100F7A0001300310AD0DAE0DFF3E031DBE2F2A0832
:100F8A002802031DCA2F29082702031CCD2FCE2FA2
:100F9A00D82F2908A7022A08031CA803A80201308F
:100FAA00AD040030AE0401300310AA0CA90CFF3EB8
:100FBA00031DD92F0130AC02031DE42FE52FBD2FED
:100FCA00AB08031DE92FEE2FAD09AE09AD0A0319CF
:100FDA00AE0A2D08A701A7072E08A801A807F52F12
:100FEA000800C034F934A434B034993492348234C9
:060FFA00F834803490344D
:00000001FF
