:10000000743084000730F000F630F10011208000D9
:10001000840A04087E3A03191528F10A0319F00A24
:10002000062870088A00710882000A128A111828AE
:10003000F0308316031387000310003003180130DB
:10004000860003108312031300300318013086006A
:100050000030A8000030A9002D28E830AD000330A2
:10006000AE002808AB01AB072908AC01AC070A12A7
:100070008A1182270A128A11831203132B08A20104
:10008000A2072C08A301A3076430AD000030AE0026
:100090002808AB01AB072908AC01AC070A128A118A
:1000A00082270A128A11831203132B08AB01AB07B4
:1000B0002C08AC01AC070A30AD000030AE000A12CB
:1000C0008A1127270A128A11831203132B08A00111
:1000D000A0072C08A101A1070A30AD000030AE0036
:1000E0002808AB01AB072908AC01AC070A128A113A
:1000F00082270A128A11831203132B08AB01AB0764
:100100002C08AC01AC070A30AD000030AE000A127A
:100110008A1127270A128A11831203132B08A401BC
:10012000A4072C08A501A5070A30AD000030AE00D9
:100130002808AB01AB072908AC01AC070A128A11E9
:1001400027270A128A11831203132B08A601A60778
:100150002C08A701A707071422088313743E840004
:1001600000088600E830AB00FD30AC000A128A11AE
:1001700015270A128A118312031307108714200807
:100180008313743E840000088600E830AB00FD3025
:10019000AC000A128A1115270A128A11831203135E
:1001A0008710071524088313743E84000008860016
:1001B000E830AB00FD30AC000A128A1115270A1294
:1001C0008A11831203130711871526088313743EBF
:1001D000840000088600E830AB00FD30AC000A1255
:1001E0008A1115270A128A1183120313871101300D
:1001F000A8070318A90A0030A9072908803AAA000D
:10020000A7302A02031D062910302802031C0929E1
:0C0210000A292D2828280A128A1100282B
:100E2A00162F0130AB020030031CAC03AC02FF30BA
:100E3A002C06031D222FFF302B06031D252F262FDC
:100E4A00162F08000310003003180130AF00AC1F42
:100E5A002F2F302F382FAB09AC09AB0A0319AC0A74
:100E6A00AF010314AF0DAE1F3B2F3C2F412FAD092D
:100E7A00AE09AD0A0319AE0A2E082D040319462F2E
:100E8A00472F772FB0010314B00D562F01300310EE
:100E9A00AD0DAE0DFF3E031D4C2F0130B1003108E0
:100EAA00B007AE1F592F5A2F4B2F2E082C02031DA5
:100EBA00602F2D082B02031C632F642F6A2F2D0825
:100ECA00AB022E08031CAC03AC0201300310AE0CBB
:100EDA00AD0CFF3E031D6B2F0130B002031D762FB0
:100EEA00772F5A2FAF08031D7B2F802FAB09AC0930
:100EFA00AB0A0319AC0A812F08000310003003184B
:100F0A000130AF00AE1F8A2F8B2F932FAD09AE0988
:100F1A00AD0A0319AE0AAF010314AF0DAC1F962F29
:100F2A00972FA02FAB09AC09AB0A0319AC0A013001
:100F3A00B3003308AF060030B1000030B2002E080B
:100F4A002D040319A92FAA2FE52FB0010314B00D00
:100F5A00B92F01300310AD0DAE0DFF3E031DAF2FAB
:100F6A000130B3003308B007AE1FBC2FBD2FAE2F20
:100F7A0001300310B10DB20DFF3E031DBE2F2E0826
:100F8A002C02031DCA2F2D082B02031CCD2FCE2F96
:100F9A00D82F2D08AB022E08031CAC03AC0201307B
:100FAA00B1040030B20401300310AE0CAD0CFF3EA8
:100FBA00031DD92F0130B002031DE42FE52FBD2FE9
:100FCA00AF08031DE92FEE2FB109B209B10A0319BF
:100FDA00B20A3108AB01AB073208AC01AC07F52FF6
:100FEA000800C034F934A434B034993492348234C9
:060FFA00F834803490344D
:00000001FF
