:100000000A128A1103280A128A11E0270A128A1199
:1000100041300A128A11D4270A128A11E830F000FE
:10002000FD30F1000A128A11EE270A128A110828FF
:060030000A128A110028EB
:100FA800F0007008831203139300DA2F8C1DDD2FD5
:100FB800DE2FDA2F8C11080083160313871187128E
:100FC80003100030031801309400203083120313FB
:100FD80094000800EF2F0130F0020030031CF103E9
:100FE800F102FF307106031DFB2FFF307006031D51
:080FF800FE2FFF2FEF2F080070
:00000001FF
