:100000000A128A1103280310831603130030031801
:1000100001308600031083120313003003180130EF
:10002000860003100030031801308100073083166A
:10003000031381000030F0000030F1001F2883120C
:100040000B1D232824281F280B110130F00703184B
:10005000F10A0030F1077108803AF2008130720233
:10006000031D3428F53070020318372838283C283F
:100070000614861086137C287108803AF2008130BD
:100080007202031D4528F5307002031C48284928D8
:100090005A287108803AF20083307202031D5228F8
:1000A000213070020318552856285A280610861445
:1000B00086137C287108803AF20083307202031D97
:1000C000632821307002031C66286728782871088D
:1000D000803AF20085307202031D7028DD30700214
:1000E00003187328742878280610861086177C2831
:1000F0000030F0000030F1001E280A128A1100289A
:00000001FF
