:100000000A128A1103280310831603130030031801
:1000100001308600031083120313003003180130EF
:100020008600031083160313003003180130880084
:1000300083120313FF3088008316031307138717F7
:100040002630980090308312031398008130831675
:100050000313990038300A128A11EB270A128A1109
:100060000F300A128A11EB270A128A1180300A1205
:100070008A11EB270A128A110030F1000030F200D9
:100080004128831203138C1E462847284128E83054
:10009000F4000330F5000A128A11C6270A128A11E9
:1000A000831203131A08F000F008031D582859287A
:1000B000602880300A128A11EB270A128A116A28F6
:1000C00070080A128A11D8270A128A1183120313A0
:0C00D0001812181640280A128A11002885
:100F8C00C72F0130F4020030031CF503F502FF30CB
:100F9C007506031DD32FFF307406031DD62FD72FD4
:100FAC00C72F0800F3000614861006157308880076
:100FBC00E830F400FD30F5000A128A11C6270A1237
:100FCC008A118312031306110800F3008312031312
:100FDC0006108610061573088800E830F400FD3002
:100FEC00F5000A128A11C6270A128A1183120313FA
:040FFC0006110800D2
:00000001FF
