:100000005D3084000730F000ED30F10011208000F9
:10001000840A0408703A03191528F10A0319F00A32
:10002000062870088A00710882000A128A111828AE
:100030000030F0000030F100831603130713871718
:100040002630980090308312031398008130831675
:10005000031399000030F0000030F1002F287008E1
:100060005D3E8400831300080A128A11D9270A1200
:100070008A11E830F400FD30F5000A128A11C72712
:100080000A128A11E830F400FD30F5000A128A11D4
:10009000C7270A128A110130F0070318F10A00304D
:1000A000F1077108803AF20080307202031D5A286D
:1000B0000B307002031C5D285E282F282A280A12A4
:0400C0008A11002879
:100F8E00C82F0130F4020030031CF503F502FF30C8
:100F9E007506031DD42FFF307406031DD72FD82FCF
:100FAE00C82F0800F300DB2F831203130C1EE02F53
:100FBE00E12FDB2F73089900E830F4000330F500C1
:100FCE000A128A11C7270A128A11080043346F3495
:100FDE0069346D346234613474346F347234653410
:100FEE0000344334413452344534453452340034A1
:020FFE000034BD
:00000001FF
